:020000040000fa
:10000000f03f00209502000051040000530400005e
:1000100000000000000000000000000000000000e0
:100020000000000000000000000000004d0400007f
:1000300000000000000000004d0400004d0400001e
:100040004d0400004d0400004d0400004d0400006c
:100050004d0400004d0400004d0400004d0400005c
:100060004d0400004d0400004d0400004d0400004c
:100070004d0400004d0400004d0400004d0400003c
:100080004d0400004d0400004d0400004d0400002c
:100090004d04000000000000000000004d040000be
:1000a0004d0400004d0400004d0400004d0400000c
:0800b000000000004d040000f7
:020000040000fa
:1000b800f8b5c046f8bc08bc9e46704775020000fb
:1000c800f8b5c046f8bc08bc9e4670474d02000013
:020000040000fa
:1000d800f0b5c6461f4a204b00b50021934203d213
:1000e800197001339342fbd10b231c4a9c46083bf1
:1000f80098461368546819000026214311d0170048
:1001080091680c3700290fd11a19002c03d01e70e2
:1001180001339342fbd13a00136854681900214314
:10012800edd104bc9046f0bd6146c91a1d1951189d
:10013800002c05d05a1c505c187013009542f9d158
:10014800434623405a1e9341a4081c19a4003f1992
:100158003a00e1e700000020000000202003000032
:020000040000fa
:100168001b4b00229a619a8c80218a439a841a0038
:100178001023d1680b42fcd0164b1b689b0e3f2bfb
:1001880024d09b02802292001343114a93621023c9
:10019800d1680b42fcd00e4b02229a841a0010231d
:1001a800d1680b42fcd00c4b0c4a5a601a005378a9
:1001b8005bb2002bfbdb084b094a5a80094ba02293
:1001c800d2021a62024b00221a627047203bd8e71b
:1001d8000008004024608000000c00400007010077
:0801e80021400000000400406a
:020000040000fa
:1001f00000230e4a10b513600d4a13600d4a1360b8
:100200000d4a13600d4a13600d4a536213610133a6
:10021000936000f01ff900f01df90a4c0a4b9c4254
:1002200000d310bd08cc9847f8e7c0467000002006
:100230000c00002008000020000000200400002026
:0c02400010000020c4000000c8000000f6
:020000040000fa
:10024c0010b5064c2378002b07d1054b002b02d0a0
:10025c00044800e000bf0123237010bd50000020b3
:10026c000000000000000000044b10b5002b03d070
:10027c000349044800e000bf10bdc0460000000068
:08028c005400002000000000f6
:020000040000fa
:1002940010b50a4b98470a4b9847fff71bff094bc9
:1002a400ff229343084a9360084b9847084b9847aa
:1002b400084b984700f010f8fee7c0464f040000d2
:1002c4004f0400000000000000ed00e0f101000018
:0802d4004f0400004f0400007c
:020000040000fa
:1002dc0070b5002000f05cf800f09ef8002000f0f3
:1002ec0079f80a4800f036f80124084d084e200031
:1002fc0000f070f8280000f02df80134a4b2a31b14
:10030c005a1e93415b421c40f1e7c046ca030000f1
:04031c00ff030000db
:020000040000fa
:10032000500000201c000000000000006c000020b5
:100330000400000000000000000000205000000049
:100340000000000070000020040000000000000019
:10035000000000000000000022222222222222228d
:020000040000fa
:1003600070b50d4a56681368db0713d5430018189b
:10037000000193680ed000211400013605e0b51a83
:10038000eb18c9181300884204d9a2689a42f6d81b
:0c0390009b1af6e770bdc04610e000e0cc
:020000040000fa
:10039c0010b5084b06225a6000f034f8fff7defe69
:1003ac0000f044f800f022f800f006f800f044f8f1
:0803bc0010bdc04600400041e5
:020000040000fa
:1003c400054b49225a7000229a7002321a701a00a0
:0c03d400d379002bfcd170470048004298
:020000040000fa
:1003e0008005800d034b18811a00d379002bfcd1b6
:0803f0007047c04600480042be
:020000040000fa
:1003f800044b00221a609a602f325a602b3a1a6016
:080408007047c04610e000e05f
:020000040000fa
:10041000034b012242215a5411395a547047c046a5
:040420000044004153
:020000040000fa
:10042400034b00229a601a6801210a431a6070473c
:0404340010e000e0f4
:020000040000fa
:0c043800014b82225a60704700400041d6
:020000040000fa
:08044400bff35f8f62b6704741
:020000040000fa
:02044c00fee7c9
:020000040000fa
:02044e007047f5
:020000040000fa
:02045000fee7c5
:020000040000fa
:02045200fee7c3
:020000040000fa
:020454007047ef
:020000040000fa
:0200000400807a
:0440000077c700d8a6
:020000040000fa
:0200000400807a
:044004005c00ffff5e
:00000001FF
